{
  "contractName": "CertVerify",
  "abi": [
    {
      "inputs": [],
      "payable": false,
      "stateMutability": "nonpayable",
      "type": "constructor"
    },
    {
      "anonymous": false,
      "inputs": [
        {
          "indexed": false,
          "internalType": "address",
          "name": "_newAdmin",
          "type": "address"
        },
        {
          "indexed": true,
          "internalType": "uint256",
          "name": "_maxAdminNum",
          "type": "uint256"
        }
      ],
      "name": "AdminAdded",
      "type": "event"
    },
    {
      "anonymous": false,
      "inputs": [
        {
          "indexed": false,
          "internalType": "uint256",
          "name": "_newAdminLimit",
          "type": "uint256"
        }
      ],
      "name": "AdminLimitChanged",
      "type": "event"
    },
    {
      "anonymous": false,
      "inputs": [
        {
          "indexed": false,
          "internalType": "address",
          "name": "_newAdmin",
          "type": "address"
        },
        {
          "indexed": true,
          "internalType": "uint256",
          "name": "adminIndex",
          "type": "uint256"
        }
      ],
      "name": "AdminRemoved",
      "type": "event"
    },
    {
      "anonymous": false,
      "inputs": [
        {
          "indexed": false,
          "internalType": "string",
          "name": "_email",
          "type": "string"
        },
        {
          "indexed": false,
          "internalType": "string",
          "name": "_assignmentLink",
          "type": "string"
        },
        {
          "indexed": false,
          "internalType": "enum CertVerify.assignmentStatus",
          "name": "_status",
          "type": "uint8"
        },
        {
          "indexed": false,
          "internalType": "uint16",
          "name": "_assignmentIndex",
          "type": "uint16"
        }
      ],
      "name": "AssignmentAdded",
      "type": "event"
    },
    {
      "anonymous": false,
      "inputs": [
        {
          "indexed": false,
          "internalType": "string",
          "name": "_studentEmail",
          "type": "string"
        },
        {
          "indexed": true,
          "internalType": "uint256",
          "name": "_assignmentIndex",
          "type": "uint256"
        },
        {
          "indexed": false,
          "internalType": "enum CertVerify.assignmentStatus",
          "name": "_status",
          "type": "uint8"
        }
      ],
      "name": "AssignmentUpdated",
      "type": "event"
    },
    {
      "anonymous": false,
      "inputs": [
        {
          "indexed": true,
          "internalType": "address",
          "name": "_addr",
          "type": "address"
        },
        {
          "indexed": false,
          "internalType": "uint256",
          "name": "_value",
          "type": "uint256"
        }
      ],
      "name": "EtherDonated",
      "type": "event"
    },
    {
      "anonymous": false,
      "inputs": [
        {
          "indexed": true,
          "internalType": "address",
          "name": "_addr",
          "type": "address"
        },
        {
          "indexed": false,
          "internalType": "uint256",
          "name": "_value",
          "type": "uint256"
        }
      ],
      "name": "EtherWithdrawn",
      "type": "event"
    },
    {
      "anonymous": false,
      "inputs": [
        {
          "indexed": true,
          "internalType": "address",
          "name": "previousOwner",
          "type": "address"
        },
        {
          "indexed": true,
          "internalType": "address",
          "name": "newOwner",
          "type": "address"
        }
      ],
      "name": "OwnershipTransferred",
      "type": "event"
    },
    {
      "anonymous": false,
      "inputs": [
        {
          "indexed": false,
          "internalType": "bytes32",
          "name": "_firstName",
          "type": "bytes32"
        },
        {
          "indexed": false,
          "internalType": "bytes32",
          "name": "_lastName",
          "type": "bytes32"
        },
        {
          "indexed": false,
          "internalType": "bytes32",
          "name": "_commendation",
          "type": "bytes32"
        },
        {
          "indexed": false,
          "internalType": "enum CertVerify.grades",
          "name": "_grade",
          "type": "uint8"
        },
        {
          "indexed": false,
          "internalType": "string",
          "name": "_email",
          "type": "string"
        }
      ],
      "name": "StudentAdded",
      "type": "event"
    },
    {
      "anonymous": false,
      "inputs": [
        {
          "indexed": false,
          "internalType": "string",
          "name": "_email",
          "type": "string"
        },
        {
          "indexed": false,
          "internalType": "bytes32",
          "name": "_newCommendation",
          "type": "bytes32"
        }
      ],
      "name": "StudentCommendationUpdated",
      "type": "event"
    },
    {
      "anonymous": false,
      "inputs": [
        {
          "indexed": false,
          "internalType": "string",
          "name": "_oldEmail",
          "type": "string"
        },
        {
          "indexed": false,
          "internalType": "string",
          "name": "_newEmail",
          "type": "string"
        }
      ],
      "name": "StudentEmailUpdated",
      "type": "event"
    },
    {
      "anonymous": false,
      "inputs": [
        {
          "indexed": false,
          "internalType": "string",
          "name": "_email",
          "type": "string"
        },
        {
          "indexed": false,
          "internalType": "enum CertVerify.grades",
          "name": "_studentGrade",
          "type": "uint8"
        }
      ],
      "name": "StudentGradeUpdated",
      "type": "event"
    },
    {
      "anonymous": false,
      "inputs": [
        {
          "indexed": false,
          "internalType": "string",
          "name": "_email",
          "type": "string"
        },
        {
          "indexed": false,
          "internalType": "bytes32",
          "name": "_newFirstName",
          "type": "bytes32"
        },
        {
          "indexed": false,
          "internalType": "bytes32",
          "name": "_newLastName",
          "type": "bytes32"
        }
      ],
      "name": "StudentNameUpdated",
      "type": "event"
    },
    {
      "anonymous": false,
      "inputs": [
        {
          "indexed": false,
          "internalType": "string",
          "name": "_email",
          "type": "string"
        }
      ],
      "name": "StudentRemoved",
      "type": "event"
    },
    {
      "constant": true,
      "inputs": [],
      "name": "adminIndex",
      "outputs": [
        {
          "internalType": "uint256",
          "name": "",
          "type": "uint256"
        }
      ],
      "payable": false,
      "stateMutability": "view",
      "type": "function"
    },
    {
      "constant": true,
      "inputs": [
        {
          "internalType": "address",
          "name": "",
          "type": "address"
        }
      ],
      "name": "admins",
      "outputs": [
        {
          "internalType": "bool",
          "name": "authorized",
          "type": "bool"
        },
        {
          "internalType": "uint256",
          "name": "Id",
          "type": "uint256"
        }
      ],
      "payable": false,
      "stateMutability": "view",
      "type": "function"
    },
    {
      "constant": true,
      "inputs": [
        {
          "internalType": "uint256",
          "name": "",
          "type": "uint256"
        }
      ],
      "name": "adminsReverseMapping",
      "outputs": [
        {
          "internalType": "address",
          "name": "",
          "type": "address"
        }
      ],
      "payable": false,
      "stateMutability": "view",
      "type": "function"
    },
    {
      "constant": true,
      "inputs": [],
      "name": "maxAdmins",
      "outputs": [
        {
          "internalType": "uint256",
          "name": "",
          "type": "uint256"
        }
      ],
      "payable": false,
      "stateMutability": "view",
      "type": "function"
    },
    {
      "constant": true,
      "inputs": [],
      "name": "owner",
      "outputs": [
        {
          "internalType": "address",
          "name": "",
          "type": "address"
        }
      ],
      "payable": false,
      "stateMutability": "view",
      "type": "function"
    },
    {
      "constant": true,
      "inputs": [],
      "name": "studentIndex",
      "outputs": [
        {
          "internalType": "uint256",
          "name": "",
          "type": "uint256"
        }
      ],
      "payable": false,
      "stateMutability": "view",
      "type": "function"
    },
    {
      "constant": true,
      "inputs": [
        {
          "internalType": "uint256",
          "name": "",
          "type": "uint256"
        }
      ],
      "name": "students",
      "outputs": [
        {
          "internalType": "bytes32",
          "name": "firstName",
          "type": "bytes32"
        },
        {
          "internalType": "bytes32",
          "name": "lastName",
          "type": "bytes32"
        },
        {
          "internalType": "bytes32",
          "name": "commendation",
          "type": "bytes32"
        },
        {
          "internalType": "enum CertVerify.grades",
          "name": "grade",
          "type": "uint8"
        },
        {
          "internalType": "uint16",
          "name": "assignmentIndex",
          "type": "uint16"
        },
        {
          "internalType": "bool",
          "name": "active",
          "type": "bool"
        },
        {
          "internalType": "string",
          "name": "email",
          "type": "string"
        }
      ],
      "payable": false,
      "stateMutability": "view",
      "type": "function"
    },
    {
      "constant": true,
      "inputs": [
        {
          "internalType": "string",
          "name": "",
          "type": "string"
        }
      ],
      "name": "studentsReverseMapping",
      "outputs": [
        {
          "internalType": "uint256",
          "name": "",
          "type": "uint256"
        }
      ],
      "payable": false,
      "stateMutability": "view",
      "type": "function"
    },
    {
      "constant": false,
      "inputs": [
        {
          "internalType": "address",
          "name": "_newAdmin",
          "type": "address"
        }
      ],
      "name": "addAdmin",
      "outputs": [],
      "payable": false,
      "stateMutability": "nonpayable",
      "type": "function"
    },
    {
      "constant": false,
      "inputs": [
        {
          "internalType": "address",
          "name": "_admin",
          "type": "address"
        }
      ],
      "name": "removeAdmin",
      "outputs": [],
      "payable": false,
      "stateMutability": "nonpayable",
      "type": "function"
    },
    {
      "constant": false,
      "inputs": [
        {
          "internalType": "bytes32",
          "name": "_firstName",
          "type": "bytes32"
        },
        {
          "internalType": "bytes32",
          "name": "_lastName",
          "type": "bytes32"
        },
        {
          "internalType": "bytes32",
          "name": "_commendation",
          "type": "bytes32"
        },
        {
          "internalType": "enum CertVerify.grades",
          "name": "_grade",
          "type": "uint8"
        },
        {
          "internalType": "string",
          "name": "_email",
          "type": "string"
        }
      ],
      "name": "addStudent",
      "outputs": [],
      "payable": false,
      "stateMutability": "nonpayable",
      "type": "function"
    },
    {
      "constant": false,
      "inputs": [
        {
          "internalType": "string",
          "name": "_email",
          "type": "string"
        }
      ],
      "name": "removeStudent",
      "outputs": [],
      "payable": false,
      "stateMutability": "nonpayable",
      "type": "function"
    },
    {
      "constant": false,
      "inputs": [
        {
          "internalType": "uint256",
          "name": "_newAdminLimit",
          "type": "uint256"
        }
      ],
      "name": "changeAdminLimit",
      "outputs": [],
      "payable": false,
      "stateMutability": "nonpayable",
      "type": "function"
    },
    {
      "constant": false,
      "inputs": [
        {
          "internalType": "string",
          "name": "_email",
          "type": "string"
        },
        {
          "internalType": "bytes32",
          "name": "_newFirstName",
          "type": "bytes32"
        },
        {
          "internalType": "bytes32",
          "name": "_newLastName",
          "type": "bytes32"
        }
      ],
      "name": "changeStudentName",
      "outputs": [],
      "payable": false,
      "stateMutability": "nonpayable",
      "type": "function"
    },
    {
      "constant": false,
      "inputs": [
        {
          "internalType": "string",
          "name": "_email",
          "type": "string"
        },
        {
          "internalType": "bytes32",
          "name": "_newCommendation",
          "type": "bytes32"
        }
      ],
      "name": "changeStudentCommendation",
      "outputs": [],
      "payable": false,
      "stateMutability": "nonpayable",
      "type": "function"
    },
    {
      "constant": false,
      "inputs": [
        {
          "internalType": "string",
          "name": "_email",
          "type": "string"
        },
        {
          "internalType": "enum CertVerify.grades",
          "name": "_grade",
          "type": "uint8"
        }
      ],
      "name": "changeStudentGrade",
      "outputs": [],
      "payable": false,
      "stateMutability": "nonpayable",
      "type": "function"
    },
    {
      "constant": false,
      "inputs": [
        {
          "internalType": "string",
          "name": "_email",
          "type": "string"
        },
        {
          "internalType": "string",
          "name": "_newEmail",
          "type": "string"
        }
      ],
      "name": "changeStudentEmail",
      "outputs": [],
      "payable": false,
      "stateMutability": "nonpayable",
      "type": "function"
    },
    {
      "constant": false,
      "inputs": [
        {
          "internalType": "address",
          "name": "_newOwner",
          "type": "address"
        }
      ],
      "name": "transferOwnership",
      "outputs": [],
      "payable": false,
      "stateMutability": "nonpayable",
      "type": "function"
    },
    {
      "constant": false,
      "inputs": [],
      "name": "renounceOwnership",
      "outputs": [],
      "payable": false,
      "stateMutability": "nonpayable",
      "type": "function"
    },
    {
      "constant": false,
      "inputs": [
        {
          "internalType": "string",
          "name": "_email",
          "type": "string"
        },
        {
          "internalType": "string",
          "name": "_assignmentLink",
          "type": "string"
        },
        {
          "internalType": "enum CertVerify.assignmentStatus",
          "name": "_assignmentStatus",
          "type": "uint8"
        },
        {
          "internalType": "bool",
          "name": "_isFinalProject",
          "type": "bool"
        }
      ],
      "name": "addAssignment",
      "outputs": [],
      "payable": false,
      "stateMutability": "nonpayable",
      "type": "function"
    },
    {
      "constant": false,
      "inputs": [
        {
          "internalType": "string",
          "name": "_email",
          "type": "string"
        },
        {
          "internalType": "enum CertVerify.assignmentStatus",
          "name": "_assignmentStatus",
          "type": "uint8"
        },
        {
          "internalType": "bool",
          "name": "_isFinalProject",
          "type": "bool"
        }
      ],
      "name": "updateAssignmentStatus",
      "outputs": [],
      "payable": false,
      "stateMutability": "nonpayable",
      "type": "function"
    },
    {
      "constant": true,
      "inputs": [
        {
          "internalType": "string",
          "name": "_email",
          "type": "string"
        },
        {
          "internalType": "uint16",
          "name": "_assignmentIndex",
          "type": "uint16"
        }
      ],
      "name": "getAssignmentInfo",
      "outputs": [
        {
          "internalType": "string",
          "name": "assignmentLink",
          "type": "string"
        },
        {
          "internalType": "enum CertVerify.assignmentStatus",
          "name": "status",
          "type": "uint8"
        }
      ],
      "payable": false,
      "stateMutability": "view",
      "type": "function"
    },
    {
      "constant": false,
      "inputs": [],
      "name": "donateEth",
      "outputs": [],
      "payable": true,
      "stateMutability": "payable",
      "type": "function"
    },
    {
      "constant": false,
      "inputs": [],
      "name": "withdrawEth",
      "outputs": [
        {
          "internalType": "bool",
          "name": "success",
          "type": "bool"
        }
      ],
      "payable": true,
      "stateMutability": "payable",
      "type": "function"
    }
  ],
  "bytecode": "0x6080604052600060025560006003553480156200001b57600080fd5b50336000806101000a81548173ffffffffffffffffffffffffffffffffffffffff021916908373ffffffffffffffffffffffffffffffffffffffff1602179055503373ffffffffffffffffffffffffffffffffffffffff16600073ffffffffffffffffffffffffffffffffffffffff167f8be0079c531659141344cd1fd0a4f28419497f9722a3daafe3b4186f6b6457e060405160405180910390a36002600181905550620000d033620000d660201b60201c565b62000403565b60011515600460008373ffffffffffffffffffffffffffffffffffffffff1673ffffffffffffffffffffffffffffffffffffffff16815260200190815260200160002060000160009054906101000a900460ff1615151415620001395762000195565b6001600460008373ffffffffffffffffffffffffffffffffffffffff1673ffffffffffffffffffffffffffffffffffffffff16815260200190815260200160002060000160006101000a81548160ff0219169083151502179055505b6200019f620003e7565b600460008373ffffffffffffffffffffffffffffffffffffffff1673ffffffffffffffffffffffffffffffffffffffff1681526020019081526020016000206040518060400160405290816000820160009054906101000a900460ff16151515158152602001600182015481525050905080600460008473ffffffffffffffffffffffffffffffffffffffff1673ffffffffffffffffffffffffffffffffffffffff16815260200190815260200160002060008201518160000160006101000a81548160ff021916908315150217905550602082015181600101559050508160056000600254815260200190815260200160002060006101000a81548173ffffffffffffffffffffffffffffffffffffffff021916908373ffffffffffffffffffffffffffffffffffffffff160217905550620002ee60016002546200035e60201b620047bc1790919060201c565b6002819055506002547f723c2b747529ca7f5eb53a74808f4a8b9bf264f0fc450fd904900151da74548a83604051808273ffffffffffffffffffffffffffffffffffffffff1673ffffffffffffffffffffffffffffffffffffffff16815260200191505060405180910390a25050565b600080828401905083811015620003dd576040517f08c379a000000000000000000000000000000000000000000000000000000000815260040180806020018281038252601b8152602001807f536166654d6174683a206164646974696f6e206f766572666c6f77000000000081525060200191505060405180910390fd5b8091505092915050565b6040518060400160405280600015158152602001600081525090565b6150e480620004136000396000f3fe60806040526004361061014b5760003560e01c8063800d3c1a116100b6578063a69543111161006f578063a695431114610b89578063aadd1b0314610c5b578063dc63c3e914610c65578063edd6cfb114610dc4578063f27de6db14610e8c578063f2fde38b14610f615761014b565b8063800d3c1a1461072d5780638702f2ac146108095780638da5cb5b14610834578063916e0b7d1461088b5780639bada32614610a03578063a0ef91df14610b675761014b565b806334839ea91161010857806334839ea9146104bc578063429b62e5146104e75780634ca3ec5114610557578063704802751461064a578063715018a61461069b5780637a8ec57a146106b25761014b565b80630334982e1461015057806306ead22e1461023157806310f087c314610329578063151b151c14610405578063170edcd6146104305780631785f53c1461046b575b600080fd5b34801561015c57600080fd5b5061022f6004803603606081101561017357600080fd5b810190808035906020019064010000000081111561019057600080fd5b8201836020820111156101a257600080fd5b803590602001918460018302840111640100000000831117156101c457600080fd5b91908080601f016020809104026020016040519081016040528093929190818152602001838380828437600081840152601f19601f820116905080830192505050505050509192919290803560ff169060200190929190803515159060200190929190505050610fb2565b005b34801561023d57600080fd5b5061026a6004803603602081101561025457600080fd5b8101908080359060200190929190505050611505565b6040518088815260200187815260200186815260200185600481111561028c57fe5b60ff1681526020018461ffff1661ffff1681526020018315151515815260200180602001828103825283818151815260200191508051906020019080838360005b838110156102e85780820151818401526020810190506102cd565b50505050905090810190601f1680156103155780820380516001836020036101000a031916815260200191505b509850505050505050505060405180910390f35b34801561033557600080fd5b506103ef6004803603602081101561034c57600080fd5b810190808035906020019064010000000081111561036957600080fd5b82018360208201111561037b57600080fd5b8035906020019184600183028401116401000000008311171561039d57600080fd5b91908080601f016020809104026020016040519081016040528093929190818152602001838380828437600081840152601f19601f820116905080830192505050505050509192919290505050611607565b6040518082815260200191505060405180910390f35b34801561041157600080fd5b5061041a611635565b6040518082815260200191505060405180910390f35b34801561043c57600080fd5b506104696004803603602081101561045357600080fd5b810190808035906020019092919050505061163b565b005b34801561047757600080fd5b506104ba6004803603602081101561048e57600080fd5b81019080803573ffffffffffffffffffffffffffffffffffffffff169060200190929190505050611701565b005b3480156104c857600080fd5b506104d1611878565b6040518082815260200191505060405180910390f35b3480156104f357600080fd5b506105366004803603602081101561050a57600080fd5b81019080803573ffffffffffffffffffffffffffffffffffffffff16906020019092919050505061187e565b60405180831515151581526020018281526020019250505060405180910390f35b34801561056357600080fd5b50610648600480360360a081101561057a57600080fd5b81019080803590602001909291908035906020019092919080359060200190929190803560ff169060200190929190803590602001906401000000008111156105c257600080fd5b8201836020820111156105d457600080fd5b803590602001918460018302840111640100000000831117156105f657600080fd5b91908080601f016020809104026020016040519081016040528093929190818152602001838380828437600081840152601f19601f8201169050808301925050505050505091929192905050506118af565b005b34801561065657600080fd5b506106996004803603602081101561066d57600080fd5b81019080803573ffffffffffffffffffffffffffffffffffffffff169060200190929190505050611d68565b005b3480156106a757600080fd5b506106b0611eb0565b005b3480156106be57600080fd5b506106eb600480360360208110156106d557600080fd5b8101908080359060200190929190505050611fe0565b604051808273ffffffffffffffffffffffffffffffffffffffff1673ffffffffffffffffffffffffffffffffffffffff16815260200191505060405180910390f35b34801561073957600080fd5b506108076004803603606081101561075057600080fd5b810190808035906020019064010000000081111561076d57600080fd5b82018360208201111561077f57600080fd5b803590602001918460018302840111640100000000831117156107a157600080fd5b91908080601f016020809104026020016040519081016040528093929190818152602001838380828437600081840152601f19601f8201169050808301925050505050505091929192908035906020019092919080359060200190929190505050612013565b005b34801561081557600080fd5b5061081e612477565b6040518082815260200191505060405180910390f35b34801561084057600080fd5b5061084961247d565b604051808273ffffffffffffffffffffffffffffffffffffffff1673ffffffffffffffffffffffffffffffffffffffff16815260200191505060405180910390f35b34801561089757600080fd5b50610a01600480360360808110156108ae57600080fd5b81019080803590602001906401000000008111156108cb57600080fd5b8201836020820111156108dd57600080fd5b803590602001918460018302840111640100000000831117156108ff57600080fd5b91908080601f016020809104026020016040519081016040528093929190818152602001838380828437600081840152601f19601f8201169050808301925050505050505091929192908035906020019064010000000081111561096257600080fd5b82018360208201111561097457600080fd5b8035906020019184600183028401116401000000008311171561099657600080fd5b91908080601f016020809104026020016040519081016040528093929190818152602001838380828437600081840152601f19601f820116905080830192505050505050509192919290803560ff1690602001909291908035151590602001909291905050506124a6565b005b348015610a0f57600080fd5b50610ad760048036036040811015610a2657600080fd5b8101908080359060200190640100000000811115610a4357600080fd5b820183602082011115610a5557600080fd5b80359060200191846001830284011164010000000083111715610a7757600080fd5b91908080601f016020809104026020016040519081016040528093929190818152602001838380828437600081840152601f19601f820116905080830192505050505050509192919290803561ffff169060200190929190505050612c16565b6040518080602001836002811115610aeb57fe5b60ff168152602001828103825284818151815260200191508051906020019080838360005b83811015610b2b578082015181840152602081019050610b10565b50505050905090810190601f168015610b585780820380516001836020036101000a031916815260200191505b50935050505060405180910390f35b610b6f6131da565b604051808215151515815260200191505060405180910390f35b348015610b9557600080fd5b50610c5960048036036040811015610bac57600080fd5b8101908080359060200190640100000000811115610bc957600080fd5b820183602082011115610bdb57600080fd5b80359060200191846001830284011164010000000083111715610bfd57600080fd5b91908080601f016020809104026020016040519081016040528093929190818152602001838380828437600081840152601f19601f82011690508083019250505050505050919291929080359060200190929190505050613362565b005b610c63613739565b005b348015610c7157600080fd5b50610dc260048036036040811015610c8857600080fd5b8101908080359060200190640100000000811115610ca557600080fd5b820183602082011115610cb757600080fd5b80359060200191846001830284011164010000000083111715610cd957600080fd5b91908080601f016020809104026020016040519081016040528093929190818152602001838380828437600081840152601f19601f82011690508083019250505050505050919291929080359060200190640100000000811115610d3c57600080fd5b820183602082011115610d4e57600080fd5b80359060200191846001830284011164010000000083111715610d7057600080fd5b91908080601f016020809104026020016040519081016040528093929190818152602001838380828437600081840152601f19601f8201169050808301925050505050505091929192905050506137e9565b005b348015610dd057600080fd5b50610e8a60048036036020811015610de757600080fd5b8101908080359060200190640100000000811115610e0457600080fd5b820183602082011115610e1657600080fd5b80359060200191846001830284011164010000000083111715610e3857600080fd5b91908080601f016020809104026020016040519081016040528093929190818152602001838380828437600081840152601f19601f820116905080830192505050505050509192919290505050613c35565b005b348015610e9857600080fd5b50610f5f60048036036040811015610eaf57600080fd5b8101908080359060200190640100000000811115610ecc57600080fd5b820183602082011115610ede57600080fd5b80359060200191846001830284011164010000000083111715610f0057600080fd5b91908080601f016020809104026020016040519081016040528093929190818152602001838380828437600081840152601f19601f820116905080830192505050505050509192919290803560ff169060200190929190505050614017565b005b348015610f6d57600080fd5b50610fb060048036036020811015610f8457600080fd5b81019080803573ffffffffffffffffffffffffffffffffffffffff169060200190929190505050614418565b005b6001600460003373ffffffffffffffffffffffffffffffffffffffff1673ffffffffffffffffffffffffffffffffffffffff16815260200190815260200160002060000160006101000a81548160ff021916908315150217905561107e576040517f08c379a00000000000000000000000000000000000000000000000000000000081526004018080602001828103825260138152602001807f4f6e6c792061646d696e7320616c6c6f7765640000000000000000000000000081525060200191505060405180910390fd5b82806040516020018082805190602001908083835b602083106110b65780518252602082019150602081019050602083039250611093565b6001836020036101000a03801982511681845116808217855250505050505090500191505060405160208183030381529060405280519060200120600660006007846040518082805190602001908083835b6020831061112b5780518252602082019150602081019050602083039250611108565b6001836020036101000a038019825116818451168082178552505050505050905001915050908152602001604051809103902054815260200190815260200160002060040160405160200180828054600181600116156101000203166002900480156111ce5780601f106111ac5761010080835404028352918201916111ce565b820191906000526020600020905b8154815290600101906020018083116111ba575b5050915050604051602081830303815290604052805190602001201461125c576040517f08c379a00000000000000000000000000000000000000000000000000000000081526004018080602001828103825260148152602001807f456d61696c20646f6573206e6f7420657869737400000000000000000000000081525060200191505060405180910390fd5b6112e1600660006007876040518082805190602001908083835b602083106112995780518252602082019150602081019050602083039250611276565b6001836020036101000a038019825116818451168082178552505050505050905001915050908152602001604051809103902054815260200190815260200160002083614552565b5082600660006007876040518082805190602001908083835b6020831061131d57805182526020820191506020810190506020830392506112fa565b6001836020036101000a03801982511681845116808217855250505050505090500191505090815260200160405180910390205481526020019081526020016000206005016000600660006007896040518082805190602001908083835b6020831061139e578051825260208201915060208101905060208303925061137b565b6001836020036101000a038019825116818451168082178552505050505050905001915050908152602001604051809103902054815260200190815260200160002060030160019054906101000a900461ffff1661ffff1661ffff16815260200190815260200160002060010160006101000a81548160ff0219169083600281111561142657fe5b021790555061144960066000600354815260200190815260200160002083614552565b61ffff167f328680b4928f0aa8f2f96fb0de202693a01f39fddcfe4a5de06f0b32849844308585604051808060200183600281111561148457fe5b60ff168152602001828103825284818151815260200191508051906020019080838360005b838110156114c45780820151818401526020810190506114a9565b50505050905090810190601f1680156114f15780820380516001836020036101000a031916815260200191505b50935050505060405180910390a250505050565b60066020528060005260406000206000915090508060000154908060010154908060020154908060030160009054906101000a900460ff16908060030160019054906101000a900461ffff16908060030160039054906101000a900460ff1690806004018054600181600116156101000203166002900480601f0160208091040260200160405190810160405280929190818152602001828054600181600116156101000203166002900480156115fd5780601f106115d2576101008083540402835291602001916115fd565b820191906000526020600020905b8154815290600101906020018083116115e057829003601f168201915b5050505050905087565b6007818051602081018201805184825260208301602085012081835280955050505050506000915090505481565b60035481565b60018111801561164c575060025481115b6116be576040517f08c379a00000000000000000000000000000000000000000000000000000000081526004018080602001828103825260198152602001807f43616e6e6f742068617665206c65737365722061646d696e730000000000000081525060200191505060405180910390fd5b806001819055507f212055f063d32bdb436074d026740d08858784553298d7651fa97fa6a3ea42976001546040518082815260200191505060405180910390a150565b6000809054906101000a900473ffffffffffffffffffffffffffffffffffffffff1673ffffffffffffffffffffffffffffffffffffffff163373ffffffffffffffffffffffffffffffffffffffff16146117c3576040517f08c379a00000000000000000000000000000000000000000000000000000000081526004018080602001828103825260208152602001807f4f776e61626c653a2063616c6c6572206973206e6f7420746865206f776e657281525060200191505060405180910390fd5b6117cb61247d565b73ffffffffffffffffffffffffffffffffffffffff168173ffffffffffffffffffffffffffffffffffffffff16141561186c576040517f08c379a00000000000000000000000000000000000000000000000000000000081526004018080602001828103825260138152602001807f43616e6e6f742072656d6f7665206f776e65720000000000000000000000000081525060200191505060405180910390fd5b611875816145ba565b50565b60015481565b60046020528060005260406000206000915090508060000160009054906101000a900460ff16908060010154905082565b6001600460003373ffffffffffffffffffffffffffffffffffffffff1673ffffffffffffffffffffffffffffffffffffffff16815260200190815260200160002060000160006101000a81548160ff021916908315150217905561197b576040517f08c379a00000000000000000000000000000000000000000000000000000000081526004018080602001828103825260138152602001807f4f6e6c792061646d696e7320616c6c6f7765640000000000000000000000000081525060200191505060405180910390fd5b80806040516020018082805190602001908083835b602083106119b35780518252602082019150602081019050602083039250611990565b6001836020036101000a03801982511681845116808217855250505050505090500191505060405160208183030381529060405280519060200120600660006007846040518082805190602001908083835b60208310611a285780518252602082019150602081019050602083039250611a05565b6001836020036101000a03801982511681845116808217855250505050505090500191505090815260200160405180910390205481526020019081526020016000206004016040516020018082805460018160011615610100020316600290048015611acb5780601f10611aa9576101008083540402835291820191611acb565b820191906000526020600020905b815481529060010190602001808311611ab7575b5050915050604051602081830303815290604052805190602001201415611b5a576040517f08c379a00000000000000000000000000000000000000000000000000000000081526004018080602001828103825260138152602001807f456d61696c20616c72656164792065786973740000000000000000000000000081525060200191505060405180910390fd5b6000600660006003548152602001908152602001600020905060008160030160016101000a81548161ffff021916908361ffff16021790555060018160030160036101000a81548160ff021916908315150217905550868160000181905550858160010181905550848160020181905550838160030160006101000a81548160ff02191690836004811115611beb57fe5b021790555082816004019080519060200190611c08929190614f80565b506003546007846040518082805190602001908083835b60208310611c425780518252602082019150602081019050602083039250611c1f565b6001836020036101000a038019825116818451168082178552505050505050905001915050908152602001604051809103902081905550611c8f60016003546147bc90919063ffffffff16565b6003819055507fc5719a0b986b02b45c7bc87d7d0264b7036125e9d7e6b7b717dfc186cd2ad607878787878760405180868152602001858152602001848152602001836004811115611cdd57fe5b60ff16815260200180602001828103825283818151815260200191508051906020019080838360005b83811015611d21578082015181840152602081019050611d06565b50505050905090810190601f168015611d4e5780820380516001836020036101000a031916815260200191505b50965050505050505060405180910390a150505050505050565b6000809054906101000a900473ffffffffffffffffffffffffffffffffffffffff1673ffffffffffffffffffffffffffffffffffffffff163373ffffffffffffffffffffffffffffffffffffffff1614611e2a576040517f08c379a00000000000000000000000000000000000000000000000000000000081526004018080602001828103825260208152602001807f4f776e61626c653a2063616c6c6572206973206e6f7420746865206f776e657281525060200191505060405180910390fd5b6001546002541115611ea4576040517f08c379a00000000000000000000000000000000000000000000000000000000081526004018080602001828103825260168152602001807f4d6178696d756d2061646d696e7320616c72656164790000000000000000000081525060200191505060405180910390fd5b611ead81614844565b50565b6000809054906101000a900473ffffffffffffffffffffffffffffffffffffffff1673ffffffffffffffffffffffffffffffffffffffff163373ffffffffffffffffffffffffffffffffffffffff1614611f72576040517f08c379a00000000000000000000000000000000000000000000000000000000081526004018080602001828103825260208152602001807f4f776e61626c653a2063616c6c6572206973206e6f7420746865206f776e657281525060200191505060405180910390fd5b611f7b336145ba565b611f83614ac1565b600073ffffffffffffffffffffffffffffffffffffffff163373ffffffffffffffffffffffffffffffffffffffff167f8be0079c531659141344cd1fd0a4f28419497f9722a3daafe3b4186f6b6457e060405160405180910390a3565b60056020528060005260406000206000915054906101000a900473ffffffffffffffffffffffffffffffffffffffff1681565b6001600460003373ffffffffffffffffffffffffffffffffffffffff1673ffffffffffffffffffffffffffffffffffffffff16815260200190815260200160002060000160006101000a81548160ff02191690831515021790556120df576040517f08c379a00000000000000000000000000000000000000000000000000000000081526004018080602001828103825260138152602001807f4f6e6c792061646d696e7320616c6c6f7765640000000000000000000000000081525060200191505060405180910390fd5b82806040516020018082805190602001908083835b6020831061211757805182526020820191506020810190506020830392506120f4565b6001836020036101000a03801982511681845116808217855250505050505090500191505060405160208183030381529060405280519060200120600660006007846040518082805190602001908083835b6020831061218c5780518252602082019150602081019050602083039250612169565b6001836020036101000a0380198251168184511680821785525050505050509050019150509081526020016040518091039020548152602001908152602001600020600401604051602001808280546001816001161561010002031660029004801561222f5780601f1061220d57610100808354040283529182019161222f565b820191906000526020600020905b81548152906001019060200180831161221b575b505091505060405160208183030381529060405280519060200120146122bd576040517f08c379a00000000000000000000000000000000000000000000000000000000081526004018080602001828103825260148152602001807f456d61696c20646f6573206e6f7420657869737400000000000000000000000081525060200191505060405180910390fd5b82600660006007876040518082805190602001908083835b602083106122f857805182526020820191506020810190506020830392506122d5565b6001836020036101000a03801982511681845116808217855250505050505090500191505090815260200160405180910390205481526020019081526020016000206000018190555081600660006007876040518082805190602001908083835b6020831061237c5780518252602082019150602081019050602083039250612359565b6001836020036101000a0380198251168184511680821785525050505050509050019150509081526020016040518091039020548152602001908152602001600020600101819055507fa619a98d51afdd43275f5f41dbbbbc6634a6ce2c93ee920b48ac1e7983a160f28484846040518080602001848152602001838152602001828103825285818151815260200191508051906020019080838360005b8381101561243557808201518184015260208101905061241a565b50505050905090810190601f1680156124625780820380516001836020036101000a031916815260200191505b5094505050505060405180910390a150505050565b60025481565b60008060009054906101000a900473ffffffffffffffffffffffffffffffffffffffff16905090565b6001600460003373ffffffffffffffffffffffffffffffffffffffff1673ffffffffffffffffffffffffffffffffffffffff16815260200190815260200160002060000160006101000a81548160ff0219169083151502179055612572576040517f08c379a00000000000000000000000000000000000000000000000000000000081526004018080602001828103825260138152602001807f4f6e6c792061646d696e7320616c6c6f7765640000000000000000000000000081525060200191505060405180910390fd5b83806040516020018082805190602001908083835b602083106125aa5780518252602082019150602081019050602083039250612587565b6001836020036101000a03801982511681845116808217855250505050505090500191505060405160208183030381529060405280519060200120600660006007846040518082805190602001908083835b6020831061261f57805182526020820191506020810190506020830392506125fc565b6001836020036101000a038019825116818451168082178552505050505050905001915050908152602001604051809103902054815260200190815260200160002060040160405160200180828054600181600116156101000203166002900480156126c25780601f106126a05761010080835404028352918201916126c2565b820191906000526020600020905b8154815290600101906020018083116126ae575b50509150506040516020818303038152906040528051906020012014612750576040517f08c379a00000000000000000000000000000000000000000000000000000000081526004018080602001828103825260148152602001807f456d61696c20646f6573206e6f7420657869737400000000000000000000000081525060200191505060405180910390fd5b6127d5600660006007886040518082805190602001908083835b6020831061278d578051825260208201915060208101905060208303925061276a565b6001836020036101000a038019825116818451168082178552505050505050905001915050908152602001604051809103902054815260200190815260200160002083614552565b5083600660006007886040518082805190602001908083835b6020831061281157805182526020820191506020810190506020830392506127ee565b6001836020036101000a038019825116818451168082178552505050505050905001915050908152602001604051809103902054815260200190815260200160002060050160006006600060078a6040518082805190602001908083835b60208310612892578051825260208201915060208101905060208303925061286f565b6001836020036101000a038019825116818451168082178552505050505050905001915050908152602001604051809103902054815260200190815260200160002060030160019054906101000a900461ffff1661ffff1661ffff1681526020019081526020016000206000019080519060200190612912929190614f80565b5082600660006007886040518082805190602001908083835b6020831061294e578051825260208201915060208101905060208303925061292b565b6001836020036101000a038019825116818451168082178552505050505050905001915050908152602001604051809103902054815260200190815260200160002060050160006006600060078a6040518082805190602001908083835b602083106129cf57805182526020820191506020810190506020830392506129ac565b6001836020036101000a038019825116818451168082178552505050505050905001915050908152602001604051809103902054815260200190815260200160002060030160019054906101000a900461ffff1661ffff1661ffff16815260200190815260200160002060010160006101000a81548160ff02191690836002811115612a5757fe5b02179055507f3288fc53eb1edec731cf67ba3821396b62c0283ffacb2610481cd3fb43f86aeb858585612b056006600060078c6040518082805190602001908083835b60208310612abd5780518252602082019150602081019050602083039250612a9a565b6001836020036101000a038019825116818451168082178552505050505050905001915050908152602001604051809103902054815260200190815260200160002087614552565b604051808060200180602001856002811115612b1d57fe5b60ff1681526020018461ffff1661ffff168152602001838103835287818151815260200191508051906020019080838360005b83811015612b6b578082015181840152602081019050612b50565b50505050905090810190601f168015612b985780820380516001836020036101000a031916815260200191505b50838103825286818151815260200191508051906020019080838360005b83811015612bd1578082015181840152602081019050612bb6565b50505050905090810190601f168015612bfe5780820380516001836020036101000a031916815260200191505b50965050505050505060405180910390a15050505050565b6060600083806040516020018082805190602001908083835b60208310612c525780518252602082019150602081019050602083039250612c2f565b6001836020036101000a03801982511681845116808217855250505050505090500191505060405160208183030381529060405280519060200120600660006007846040518082805190602001908083835b60208310612cc75780518252602082019150602081019050602083039250612ca4565b6001836020036101000a03801982511681845116808217855250505050505090500191505090815260200160405180910390205481526020019081526020016000206004016040516020018082805460018160011615610100020316600290048015612d6a5780601f10612d48576101008083540402835291820191612d6a565b820191906000526020600020905b815481529060010190602001808311612d56575b50509150506040516020818303038152906040528051906020012014612df8576040517f08c379a00000000000000000000000000000000000000000000000000000000081526004018080602001828103825260148152602001807f456d61696c20646f6573206e6f7420657869737400000000000000000000000081525060200191505060405180910390fd5b6000600660006007886040518082805190602001908083835b60208310612e345780518252602082019150602081019050602083039250612e11565b6001836020036101000a038019825116818451168082178552505050505050905001915050908152602001604051809103902054815260200190815260200160002060030160019054906101000a900461ffff1661ffff161015612f00576040517f08c379a00000000000000000000000000000000000000000000000000000000081526004018080602001828103825260158152602001807f43616e6e6f74206265206c657373207468616e2030000000000000000000000081525060200191505060405180910390fd5b600660006007876040518082805190602001908083835b60208310612f3a5780518252602082019150602081019050602083039250612f17565b6001836020036101000a038019825116818451168082178552505050505050905001915050908152602001604051809103902054815260200190815260200160002060030160019054906101000a900461ffff1661ffff168461ffff161115612fee576040517f08c379a000000000000000000000000000000000000000000000000000000000815260040180806020018281038252602581526020018061508b6025913960400191505060405180910390fd5b600660006007876040518082805190602001908083835b602083106130285780518252602082019150602081019050602083039250613005565b6001836020036101000a038019825116818451168082178552505050505050905001915050908152602001604051809103902054815260200190815260200160002060050160008561ffff1661ffff168152602001908152602001600020600001600660006007886040518082805190602001908083835b602083106130c357805182526020820191506020810190506020830392506130a0565b6001836020036101000a038019825116818451168082178552505050505050905001915050908152602001604051809103902054815260200190815260200160002060050160008661ffff1661ffff16815260200190815260200160002060010160009054906101000a900460ff16818054600181600116156101000203166002900480601f0160208091040260200160405190810160405280929190818152602001828054600181600116156101000203166002900480156131c75780601f1061319c576101008083540402835291602001916131c7565b820191906000526020600020905b8154815290600101906020018083116131aa57829003601f168201915b5050505050915092509250509250929050565b60008060009054906101000a900473ffffffffffffffffffffffffffffffffffffffff1673ffffffffffffffffffffffffffffffffffffffff163373ffffffffffffffffffffffffffffffffffffffff161461329e576040517f08c379a00000000000000000000000000000000000000000000000000000000081526004018080602001828103825260208152602001807f4f776e61626c653a2063616c6c6572206973206e6f7420746865206f776e657281525060200191505060405180910390fd5b6000806132a961247d565b73ffffffffffffffffffffffffffffffffffffffff1691504790508173ffffffffffffffffffffffffffffffffffffffff166108fc829081150290604051600060405180830381858888f1935050505015801561330a573d6000803e3d6000fd5b503373ffffffffffffffffffffffffffffffffffffffff167f06097061aeda806b5e9cb4133d9899f332ff0913956567fc0f7ea15e3d19947c826040518082815260200191505060405180910390a260019250505090565b6001600460003373ffffffffffffffffffffffffffffffffffffffff1673ffffffffffffffffffffffffffffffffffffffff16815260200190815260200160002060000160006101000a81548160ff021916908315150217905561342e576040517f08c379a00000000000000000000000000000000000000000000000000000000081526004018080602001828103825260138152602001807f4f6e6c792061646d696e7320616c6c6f7765640000000000000000000000000081525060200191505060405180910390fd5b81806040516020018082805190602001908083835b602083106134665780518252602082019150602081019050602083039250613443565b6001836020036101000a03801982511681845116808217855250505050505090500191505060405160208183030381529060405280519060200120600660006007846040518082805190602001908083835b602083106134db57805182526020820191506020810190506020830392506134b8565b6001836020036101000a0380198251168184511680821785525050505050509050019150509081526020016040518091039020548152602001908152602001600020600401604051602001808280546001816001161561010002031660029004801561357e5780601f1061355c57610100808354040283529182019161357e565b820191906000526020600020905b81548152906001019060200180831161356a575b5050915050604051602081830303815290604052805190602001201461360c576040517f08c379a00000000000000000000000000000000000000000000000000000000081526004018080602001828103825260148152602001807f456d61696c20646f6573206e6f7420657869737400000000000000000000000081525060200191505060405180910390fd5b81600660006007866040518082805190602001908083835b602083106136475780518252602082019150602081019050602083039250613624565b6001836020036101000a0380198251168184511680821785525050505050509050019150509081526020016040518091039020548152602001908152602001600020600201819055507f6c18c2323a2fff052ced450b832c70b902d963e748e582c37e9c78627259731583836040518080602001838152602001828103825284818151815260200191508051906020019080838360005b838110156136f95780820151818401526020810190506136de565b50505050905090810190601f1680156137265780820380516001836020036101000a031916815260200191505b50935050505060405180910390a1505050565b6611c37937e08000341015613799576040517f08c379a00000000000000000000000000000000000000000000000000000000081526004018080602001828103825260238152602001806150426023913960400191505060405180910390fd5b3073ffffffffffffffffffffffffffffffffffffffff167f6a0c6dbe36821de45d329223954283a01c50091be764c2e16de7e317c4454fc3346040518082815260200191505060405180910390a2565b6001600460003373ffffffffffffffffffffffffffffffffffffffff1673ffffffffffffffffffffffffffffffffffffffff16815260200190815260200160002060000160006101000a81548160ff02191690831515021790556138b5576040517f08c379a00000000000000000000000000000000000000000000000000000000081526004018080602001828103825260138152602001807f4f6e6c792061646d696e7320616c6c6f7765640000000000000000000000000081525060200191505060405180910390fd5b81806040516020018082805190602001908083835b602083106138ed57805182526020820191506020810190506020830392506138ca565b6001836020036101000a03801982511681845116808217855250505050505090500191505060405160208183030381529060405280519060200120600660006007846040518082805190602001908083835b60208310613962578051825260208201915060208101905060208303925061393f565b6001836020036101000a03801982511681845116808217855250505050505090500191505090815260200160405180910390205481526020019081526020016000206004016040516020018082805460018160011615610100020316600290048015613a055780601f106139e3576101008083540402835291820191613a05565b820191906000526020600020905b8154815290600101906020018083116139f1575b50509150506040516020818303038152906040528051906020012014613a93576040517f08c379a00000000000000000000000000000000000000000000000000000000081526004018080602001828103825260148152602001807f456d61696c20646f6573206e6f7420657869737400000000000000000000000081525060200191505060405180910390fd5b81600660006007866040518082805190602001908083835b60208310613ace5780518252602082019150602081019050602083039250613aab565b6001836020036101000a03801982511681845116808217855250505050505090500191505090815260200160405180910390205481526020019081526020016000206004019080519060200190613b26929190614f80565b507f17df9833ac28525114e09d17bcfed2f9946d564bb1be9676eeb6e9e1b431db648383604051808060200180602001838103835285818151815260200191508051906020019080838360005b83811015613b8e578082015181840152602081019050613b73565b50505050905090810190601f168015613bbb5780820380516001836020036101000a031916815260200191505b50838103825284818151815260200191508051906020019080838360005b83811015613bf4578082015181840152602081019050613bd9565b50505050905090810190601f168015613c215780820380516001836020036101000a031916815260200191505b5094505050505060405180910390a1505050565b6001600460003373ffffffffffffffffffffffffffffffffffffffff1673ffffffffffffffffffffffffffffffffffffffff16815260200190815260200160002060000160006101000a81548160ff0219169083151502179055613d01576040517f08c379a00000000000000000000000000000000000000000000000000000000081526004018080602001828103825260138152602001807f4f6e6c792061646d696e7320616c6c6f7765640000000000000000000000000081525060200191505060405180910390fd5b80806040516020018082805190602001908083835b60208310613d395780518252602082019150602081019050602083039250613d16565b6001836020036101000a03801982511681845116808217855250505050505090500191505060405160208183030381529060405280519060200120600660006007846040518082805190602001908083835b60208310613dae5780518252602082019150602081019050602083039250613d8b565b6001836020036101000a03801982511681845116808217855250505050505090500191505090815260200160405180910390205481526020019081526020016000206004016040516020018082805460018160011615610100020316600290048015613e515780601f10613e2f576101008083540402835291820191613e51565b820191906000526020600020905b815481529060010190602001808311613e3d575b50509150506040516020818303038152906040528051906020012014613edf576040517f08c379a00000000000000000000000000000000000000000000000000000000081526004018080602001828103825260148152602001807f456d61696c20646f6573206e6f7420657869737400000000000000000000000081525060200191505060405180910390fd5b6000600660006007856040518082805190602001908083835b60208310613f1b5780518252602082019150602081019050602083039250613ef8565b6001836020036101000a038019825116818451168082178552505050505050905001915050908152602001604051809103902054815260200190815260200160002060030160036101000a81548160ff0219169083151502179055507f38423ea25c06d2143785d918924e8169e3b337f6a91bd30ff94fdcb296a79c5b826040518080602001828103825283818151815260200191508051906020019080838360005b83811015613fd9578082015181840152602081019050613fbe565b50505050905090810190601f1680156140065780820380516001836020036101000a031916815260200191505b509250505060405180910390a15050565b6001600460003373ffffffffffffffffffffffffffffffffffffffff1673ffffffffffffffffffffffffffffffffffffffff16815260200190815260200160002060000160006101000a81548160ff02191690831515021790556140e3576040517f08c379a00000000000000000000000000000000000000000000000000000000081526004018080602001828103825260138152602001807f4f6e6c792061646d696e7320616c6c6f7765640000000000000000000000000081525060200191505060405180910390fd5b81806040516020018082805190602001908083835b6020831061411b57805182526020820191506020810190506020830392506140f8565b6001836020036101000a03801982511681845116808217855250505050505090500191505060405160208183030381529060405280519060200120600660006007846040518082805190602001908083835b60208310614190578051825260208201915060208101905060208303925061416d565b6001836020036101000a038019825116818451168082178552505050505050905001915050908152602001604051809103902054815260200190815260200160002060040160405160200180828054600181600116156101000203166002900480156142335780601f10614211576101008083540402835291820191614233565b820191906000526020600020905b81548152906001019060200180831161421f575b505091505060405160208183030381529060405280519060200120146142c1576040517f08c379a00000000000000000000000000000000000000000000000000000000081526004018080602001828103825260148152602001807f456d61696c20646f6573206e6f7420657869737400000000000000000000000081525060200191505060405180910390fd5b81600660006007866040518082805190602001908083835b602083106142fc57805182526020820191506020810190506020830392506142d9565b6001836020036101000a038019825116818451168082178552505050505050905001915050908152602001604051809103902054815260200190815260200160002060030160006101000a81548160ff0219169083600481111561435c57fe5b02179055507fec3f9e7c0ec802aac2f07f51ca8ed3fe3e71832bb9b25fa02699f1e133558b288383604051808060200183600481111561439857fe5b60ff168152602001828103825284818151815260200191508051906020019080838360005b838110156143d85780820151818401526020810190506143bd565b50505050905090810190601f1680156144055780820380516001836020036101000a031916815260200191505b50935050505060405180910390a1505050565b6000809054906101000a900473ffffffffffffffffffffffffffffffffffffffff1673ffffffffffffffffffffffffffffffffffffffff163373ffffffffffffffffffffffffffffffffffffffff16146144da576040517f08c379a00000000000000000000000000000000000000000000000000000000081526004018080602001828103825260208152602001807f4f776e61626c653a2063616c6c6572206973206e6f7420746865206f776e657281525060200191505060405180910390fd5b6144e3336145ba565b6144ec81614844565b6144f581614c42565b8073ffffffffffffffffffffffffffffffffffffffff163373ffffffffffffffffffffffffffffffffffffffff167f8be0079c531659141344cd1fd0a4f28419497f9722a3daafe3b4186f6b6457e060405160405180910390a350565b60006001151582151514156145875760008360030160016101000a81548161ffff021916908361ffff160217905590506145b4565b6145b160018460030160019054906101000a900461ffff1661ffff16614d1090919063ffffffff16565b90505b92915050565b600160025411614632576040517f08c379a000000000000000000000000000000000000000000000000000000000815260040180806020018281038252601c8152602001807f43616e6e6f74206f70657261746520776974686f75742061646d696e0000000081525060200191505060405180910390fd5b60011515600460008373ffffffffffffffffffffffffffffffffffffffff1673ffffffffffffffffffffffffffffffffffffffff16815260200190815260200160002060000160009054906101000a905050508060056000600254815260200190815260200160002060006101000a81548173ffffffffffffffffffffffffffffffffffffffff021916908373ffffffffffffffffffffffffffffffffffffffff160217905550600460008273ffffffffffffffffffffffffffffffffffffffff1673ffffffffffffffffffffffffffffffffffffffff168152602001908152602001600020600080820160006101000a81549060ff02191690556001820160009055505061474d6001600254614d3290919063ffffffff16565b6002819055506002547fa0726c73cf6ad18ddb855ba65d1ddd4d7fd37d320f4e52f6b154c13d386f5fd982604051808273ffffffffffffffffffffffffffffffffffffffff1673ffffffffffffffffffffffffffffffffffffffff16815260200191505060405180910390a250565b60008082840190508381101561483a576040517f08c379a000000000000000000000000000000000000000000000000000000000815260040180806020018281038252601b8152602001807f536166654d6174683a206164646974696f6e206f766572666c6f77000000000081525060200191505060405180910390fd5b8091505092915050565b60011515600460008373ffffffffffffffffffffffffffffffffffffffff1673ffffffffffffffffffffffffffffffffffffffff16815260200190815260200160002060000160009054906101000a900460ff16151514156148a557614901565b6001600460008373ffffffffffffffffffffffffffffffffffffffff1673ffffffffffffffffffffffffffffffffffffffff16815260200190815260200160002060000160006101000a81548160ff0219169083151502179055505b614909615000565b600460008373ffffffffffffffffffffffffffffffffffffffff1673ffffffffffffffffffffffffffffffffffffffff1681526020019081526020016000206040518060400160405290816000820160009054906101000a900460ff16151515158152602001600182015481525050905080600460008473ffffffffffffffffffffffffffffffffffffffff1673ffffffffffffffffffffffffffffffffffffffff16815260200190815260200160002060008201518160000160006101000a81548160ff021916908315150217905550602082015181600101559050508160056000600254815260200190815260200160002060006101000a81548173ffffffffffffffffffffffffffffffffffffffff021916908373ffffffffffffffffffffffffffffffffffffffff160217905550614a5160016002546147bc90919063ffffffff16565b6002819055506002547f723c2b747529ca7f5eb53a74808f4a8b9bf264f0fc450fd904900151da74548a83604051808273ffffffffffffffffffffffffffffffffffffffff1673ffffffffffffffffffffffffffffffffffffffff16815260200191505060405180910390a25050565b6000809054906101000a900473ffffffffffffffffffffffffffffffffffffffff1673ffffffffffffffffffffffffffffffffffffffff163373ffffffffffffffffffffffffffffffffffffffff1614614b83576040517f08c379a00000000000000000000000000000000000000000000000000000000081526004018080602001828103825260208152602001807f4f776e61626c653a2063616c6c6572206973206e6f7420746865206f776e657281525060200191505060405180910390fd5b600073ffffffffffffffffffffffffffffffffffffffff166000809054906101000a900473ffffffffffffffffffffffffffffffffffffffff1673ffffffffffffffffffffffffffffffffffffffff167f8be0079c531659141344cd1fd0a4f28419497f9722a3daafe3b4186f6b6457e060405160405180910390a360008060006101000a81548173ffffffffffffffffffffffffffffffffffffffff021916908373ffffffffffffffffffffffffffffffffffffffff160217905550565b6000809054906101000a900473ffffffffffffffffffffffffffffffffffffffff1673ffffffffffffffffffffffffffffffffffffffff163373ffffffffffffffffffffffffffffffffffffffff1614614d04576040517f08c379a00000000000000000000000000000000000000000000000000000000081526004018080602001828103825260208152602001807f4f776e61626c653a2063616c6c6572206973206e6f7420746865206f776e657281525060200191505060405180910390fd5b614d0d81614d7c565b50565b600081830190508261ffff168161ffff161015614d2c57600080fd5b92915050565b6000614d7483836040518060400160405280601e81526020017f536166654d6174683a207375627472616374696f6e206f766572666c6f770000815250614ec0565b905092915050565b600073ffffffffffffffffffffffffffffffffffffffff168173ffffffffffffffffffffffffffffffffffffffff161415614e02576040517f08c379a00000000000000000000000000000000000000000000000000000000081526004018080602001828103825260268152602001806150656026913960400191505060405180910390fd5b8073ffffffffffffffffffffffffffffffffffffffff166000809054906101000a900473ffffffffffffffffffffffffffffffffffffffff1673ffffffffffffffffffffffffffffffffffffffff167f8be0079c531659141344cd1fd0a4f28419497f9722a3daafe3b4186f6b6457e060405160405180910390a3806000806101000a81548173ffffffffffffffffffffffffffffffffffffffff021916908373ffffffffffffffffffffffffffffffffffffffff16021790555050565b6000838311158290614f6d576040517f08c379a00000000000000000000000000000000000000000000000000000000081526004018080602001828103825283818151815260200191508051906020019080838360005b83811015614f32578082015181840152602081019050614f17565b50505050905090810190601f168015614f5f5780820380516001836020036101000a031916815260200191505b509250505060405180910390fd5b5060008385039050809150509392505050565b828054600181600116156101000203166002900490600052602060002090601f016020900481019282601f10614fc157805160ff1916838001178555614fef565b82800160010185558215614fef579182015b82811115614fee578251825591602001919060010190614fd3565b5b509050614ffc919061501c565b5090565b6040518060400160405280600015158152602001600081525090565b61503e91905b8082111561503a576000816000905550600101615022565b5090565b9056fe43616e6e6f7420646f6e617465206c657373207468616e20302e3030352065746865724f776e61626c653a206e6577206f776e657220697320746865207a65726f206164647265737343616e6e6f74206265206d6f7265207468616e207065726d69737369626c65206c696d6974a265627a7a7231582015cb57d965c40cb05f31a52082224e9fc5929cdde1345099f3f1a560f1186c4164736f6c63430005100032",
  "source": "pragma solidity ^0.5.0;\r\n\r\nimport \"./Ownable.sol\";\r\nimport \"./SafeMath.sol\";\r\nimport \"./SafeMath16.sol\";\r\n\r\ncontract CertVerify is Ownable {\r\n   \r\n    using SafeMath for uint;\r\n    using SafeMath16 for uint16;\r\n    \r\n    uint public maxAdmins;\r\n    uint public adminIndex = 0;\r\n    uint public studentIndex = 0;\r\n    \r\n    enum assignmentStatus { \r\n        Inactive,\r\n        Pending,\r\n        Completed\r\n    }\r\n    \r\n    enum grades { \r\n        Good, \r\n        Great, \r\n        Outstanding, \r\n        Epic, \r\n        Legendary\r\n    }\r\n    \r\n    // Structs\r\n    struct Admin {\r\n        bool authorized;\r\n        uint256 Id;\r\n    }\r\n\r\n    struct Assignment {\r\n        string link;\r\n        assignmentStatus status;\r\n    }\r\n    \r\n    struct Student {\r\n        bytes32 firstName;\r\n        bytes32 lastName;\r\n        bytes32 commendation;\r\n        grades grade;\r\n        uint16 assignmentIndex;\r\n        bool active;\r\n        string email;\r\n        mapping(uint16 => Assignment) assignments;\r\n    }\r\n\r\n    // Mapping\r\n    mapping(address => Admin) public admins;\r\n    mapping(uint => address) public adminsReverseMapping;\r\n    mapping(uint => Student) public students;\r\n    mapping(string => uint) public studentsReverseMapping;\r\n\r\n    // Events\r\n\r\n    // AdminAdded Event\r\n    event AdminAdded(address _newAdmin, uint indexed _maxAdminNum);\r\n    // AdminRemoved Event\r\n    event AdminRemoved(address _newAdmin, uint indexed adminIndex);\r\n    // AdminLimitChanged Event\r\n    event AdminLimitChanged(uint _newAdminLimit);\r\n    // StudentAdded Event\r\n    event StudentAdded(bytes32 _firstName, bytes32 _lastName, bytes32 _commendation, grades _grade, string _email);\r\n    // StudentRemoved Event\r\n    event StudentRemoved(string _email);\r\n    // StudentNameUpdated Event\r\n    event StudentNameUpdated(string _email, bytes32 _newFirstName, bytes32 _newLastName);\r\n    // StudentCommendationUpdated Event\r\n    event StudentCommendationUpdated(string _email, bytes32 _newCommendation);\r\n    // StudentGradeUpdated Event\r\n    event StudentGradeUpdated(string _email, grades _studentGrade);\r\n    // StudentEmailUpdated Event\r\n    event StudentEmailUpdated(string _oldEmail, string _newEmail);\r\n    // AssignmentAdded Event\r\n    event AssignmentAdded(string _email, string _assignmentLink, assignmentStatus _status, uint16 _assignmentIndex);\r\n    // AssignmentUpdated Event\r\n    event AssignmentUpdated(string _studentEmail, uint indexed _assignmentIndex, assignmentStatus _status);\r\n    // OwnershipTransferred Event\r\n    event OwnershipTransferred(address indexed previousOwner, address indexed newOwner);\r\n    // EtherDonated Event\r\n    event EtherDonated(address indexed _addr, uint _value);\r\n    // EtherWithdrawn Event\r\n    event EtherWithdrawn(address indexed _addr, uint _value);\r\n\r\n    // Modifiers\r\n    // onlyAdmins Modifier\r\n    modifier onlyAdmins() {\r\n        require(admins[msg.sender].authorized = true, \"Only admins allowed\");\r\n        _;\r\n    }\r\n    \r\n    // onlyNonOwnerAdmins Modifier\r\n    modifier onlyNonOwnerAdmins(address _addr) {\r\n        require(admins[_addr].authorized = true, \"Only admins allowed\");\r\n        require(_addr != owner(), \"Only non-owner admin\");\r\n        _;\r\n    }\r\n    \r\n    // onlyPermissibleAdminLimit Modifier\r\n    modifier onlyPermissibleAdminLimit() {\r\n        require(adminIndex <= maxAdmins, \"Maximum admins already\");\r\n        _;\r\n    }\r\n    \r\n    // onlyNonExistentStudents Modifier\r\n    modifier onlyNonExistentStudents(string memory _email) {\r\n        require(\r\n            keccak256(\r\n                abi.encodePacked(students[studentsReverseMapping[_email]].email)\r\n            ) !=\r\n                keccak256(abi.encodePacked(_email)),\r\n            \"Email already exist\"\r\n        );\r\n        _;\r\n    }\r\n    \r\n    // onlyValidStudents Modifier\r\n    modifier onlyValidStudents(string memory _email) {\r\n        require(\r\n            keccak256(\r\n                abi.encodePacked(students[studentsReverseMapping[_email]].email)\r\n            ) ==\r\n                keccak256(abi.encodePacked(_email)),\r\n            \"Email does not exist\"\r\n        );\r\n        _;\r\n    }\r\n\r\n    // Constructor\r\n    constructor() public {\r\n        maxAdmins = 2;\r\n        _addAdmin(msg.sender);\r\n    }\r\n\r\n    // Functions\r\n    function addAdmin(\r\n        address _newAdmin\r\n        ) public onlyOwner onlyPermissibleAdminLimit\r\n    {\r\n        _addAdmin(_newAdmin);\r\n    }\r\n\r\n    function _addAdmin(\r\n        address _newAdmin\r\n        ) internal \r\n    {\r\n        if(admins[_newAdmin].authorized == true) {\r\n        } \r\n        else {\r\n        admins[_newAdmin].authorized = true;\r\n        } \r\n        Admin memory admin = admins[_newAdmin];\r\n        admins[_newAdmin] = admin;\r\n        adminsReverseMapping[adminIndex] = _newAdmin;\r\n        adminIndex = adminIndex.add(1);\r\n        // Trigger AdminAdded\r\n        emit AdminAdded(_newAdmin, adminIndex);\r\n    }\r\n\r\n    function removeAdmin(\r\n        address _admin\r\n        ) public onlyOwner \r\n    {\r\n        require(_admin != owner(), \"Cannot remove owner\");\r\n        _removeAdmin(_admin);\r\n    }\r\n\r\n    function _removeAdmin(\r\n        address _admin\r\n        ) internal\r\n    {\r\n        require(adminIndex > 1, \"Cannot operate without admin\");\r\n        if(admins[_admin].authorized == true){}\r\n        adminsReverseMapping[adminIndex] = _admin;\r\n        delete admins[_admin];\r\n        adminIndex = adminIndex.sub(1);\r\n        // Trigger AdminRemoved\r\n        emit AdminRemoved(_admin, adminIndex);\r\n    }\r\n\r\n    function addStudent(\r\n        bytes32 _firstName,\r\n        bytes32 _lastName,\r\n        bytes32 _commendation,\r\n        grades _grade,\r\n        string memory _email\r\n        ) public onlyAdmins onlyNonExistentStudents(_email) \r\n    {\r\n        Student storage student = students[studentIndex];\r\n        student.assignmentIndex = 0;\r\n        student.active = true;\r\n        student.firstName = _firstName;\r\n        student.lastName = _lastName;\r\n        student.commendation = _commendation;\r\n        student.grade = _grade;\r\n        student.email = _email;\r\n        studentsReverseMapping[_email] = studentIndex;\r\n        studentIndex = studentIndex.add(1); \r\n        // Trigger StudentAdded\r\n        emit StudentAdded(_firstName, _lastName, _commendation, _grade, _email);\r\n    }\r\n\r\n    function removeStudent(\r\n        string memory _email\r\n        ) public onlyAdmins onlyValidStudents(_email)\r\n    {\r\n        students[studentsReverseMapping[_email]].active = false;\r\n        // Trigger StudentRemoved            \r\n        emit StudentRemoved(_email);\r\n    } \r\n    \r\n    function changeAdminLimit(\r\n        uint _newAdminLimit\r\n        ) public \r\n    {\r\n        require(_newAdminLimit > 1 && _newAdminLimit > adminIndex, \"Cannot have lesser admins\");\r\n        maxAdmins = _newAdminLimit; \r\n        // Trigger AdminLimitChanged  \r\n        emit AdminLimitChanged(maxAdmins);                \r\n    }\r\n\r\n    function changeStudentName(\r\n        string memory _email, \r\n        bytes32 _newFirstName, \r\n        bytes32 _newLastName\r\n        ) public onlyAdmins onlyValidStudents(_email)\r\n    {\r\n        students[studentsReverseMapping[_email]].firstName = _newFirstName;\r\n        students[studentsReverseMapping[_email]].lastName = _newLastName; \r\n        // Trigger StudentNameUpdated  \r\n        emit StudentNameUpdated(_email, _newFirstName, _newLastName);\r\n    }\r\n\r\n    function changeStudentCommendation(\r\n        string memory _email, \r\n        bytes32 _newCommendation \r\n        ) public onlyAdmins onlyValidStudents(_email)\r\n    {\r\n        students[studentsReverseMapping[_email]].commendation = _newCommendation;\r\n        // Trigger StudentCommendationUpdated\r\n        emit StudentCommendationUpdated(_email, _newCommendation);\r\n    }\r\n    \r\n    function changeStudentGrade(\r\n        string memory _email, \r\n        grades _grade \r\n        ) public onlyAdmins onlyValidStudents(_email) \r\n    {\r\n        students[studentsReverseMapping[_email]].grade = _grade;\r\n        // Trigger StudentGradeUpdated\r\n        emit StudentGradeUpdated(_email, _grade);\r\n\r\n    }\r\n\r\n    function changeStudentEmail(\r\n        string memory _email, \r\n        string memory _newEmail\r\n        ) public onlyAdmins onlyValidStudents(_email)\r\n    {\r\n        students[studentsReverseMapping[_email]].email = _newEmail;\r\n        // Trigger StudentEmailUpdated\r\n        emit StudentEmailUpdated(_email, _newEmail);\r\n    }\r\n\r\n    function transferOwnership(\r\n        address _newOwner\r\n        ) public onlyOwner \r\n    {\r\n        _removeAdmin(msg.sender);\r\n        _addAdmin(_newOwner);\r\n        super.transferOwnership(_newOwner);\r\n        // Trigger OwnershipTransferred\r\n        emit OwnershipTransferred(msg.sender, _newOwner);\r\n\r\n    }\r\n\r\n    function renounceOwnership(\r\n        ) public onlyOwner\r\n    {\r\n        _removeAdmin(msg.sender);\r\n        super.renounceOwnership();\r\n        // Trigger OwnershipTransferred\r\n        emit OwnershipTransferred(msg.sender, address(0));\r\n    }\r\n\r\n    function _calcAndFetchAssignmentIndex(\r\n        Student storage _student, \r\n        bool _isFinalProject\r\n        ) internal returns(uint16 assignmentIndex) \r\n    {\r\n        if (_isFinalProject == true) {\r\n            return _student.assignmentIndex = 0;\r\n        } else {\r\n            return _student.assignmentIndex.add(1);\r\n        } \r\n    }\r\n    \r\n    function addAssignment(\r\n        string memory _email, \r\n        string memory _assignmentLink, \r\n        assignmentStatus _assignmentStatus, \r\n        bool _isFinalProject\r\n        ) public onlyAdmins onlyValidStudents(_email) \r\n    {\r\n        _calcAndFetchAssignmentIndex(students[studentsReverseMapping[_email]], _isFinalProject);\r\n        students[studentsReverseMapping[_email]].assignments[students[studentsReverseMapping[_email]].assignmentIndex].link = _assignmentLink;\r\n        students[studentsReverseMapping[_email]].assignments[students[studentsReverseMapping[_email]].assignmentIndex].status = _assignmentStatus;\r\n        // Trigger AssignmentAdded\r\n        emit AssignmentAdded(_email, _assignmentLink, _assignmentStatus, \r\n            _calcAndFetchAssignmentIndex(students[studentsReverseMapping[_email]], _isFinalProject));\r\n    }\r\n    \r\n    function updateAssignmentStatus(\r\n        string memory _email, \r\n        assignmentStatus _assignmentStatus, \r\n        bool _isFinalProject\r\n        )public onlyAdmins onlyValidStudents(_email)\r\n    {\r\n        _calcAndFetchAssignmentIndex(students[studentsReverseMapping[_email]], _isFinalProject);\r\n        students[studentsReverseMapping[_email]].assignments[students[studentsReverseMapping[_email]].assignmentIndex].status = _assignmentStatus;\r\n        // Trigger AssignmentUpdated\r\n        emit AssignmentUpdated(_email, _calcAndFetchAssignmentIndex(students[studentIndex], \r\n            _isFinalProject), _assignmentStatus);\r\n    }\r\n    \r\n    function getAssignmentInfo (\r\n        string memory _email, \r\n        uint16 _assignmentIndex\r\n        ) public view onlyValidStudents(_email) returns(string memory assignmentLink, assignmentStatus status) \r\n    {\r\n        require(students[studentsReverseMapping[_email]].assignmentIndex >= 0, 'Cannot be less than 0');\r\n        require(_assignmentIndex <= students[studentsReverseMapping[_email]].assignmentIndex, 'Cannot be more than permissible limit');\r\n        return(students[studentsReverseMapping[_email]].assignments[_assignmentIndex].link, \r\n            students[studentsReverseMapping[_email]].assignments[_assignmentIndex].status);\r\n    }\r\n    \r\n    function donateEth(\r\n        ) external payable \r\n    {\r\n        if(msg.value < 0.005 ether) {\r\n            revert('Cannot donate less than 0.005 ether');\r\n        }\r\n\t// Trigger EtherDonated\r\n        emit EtherDonated(address(this), msg.value);\r\n    }\r\n    \r\n    function withdrawEth(\r\n        ) public payable onlyOwner returns (bool success)\r\n    {\r\n        address payable _owner;\r\n        uint bal;\r\n        _owner = address(uint(owner()));\r\n        bal = address(this).balance;\r\n        _owner.transfer(bal);\r\n\t// Trigger EtherWithdrawn\r\n        emit EtherWithdrawn(msg.sender, bal);\r\n        return true;\r\n    }\r\n    \r\n}",
  "sourcePath": "D:\\Sammy\\Projects\\Team-B\\contracts\\CertVerify.sol",
  "compiler": {
    "name": "solc",
    "version": "0.5.16+commit.9c3226ce.Emscripten.clang"
  },
  "schemaVersion": "3.0.23",
  "updatedAt": "2020-02-28T19:00:12.572Z",
  "networkType": "ethereum",
  "devdoc": {
    "methods": {
      "owner()": {
        "details": "Returns the address of the current owner."
      }
    }
  },
  "userdoc": {
    "methods": {}
  }
}